:020000040800F2
:10000000400900205D1F0008491E00084B1E000823
:100010004D1E00084F1E0008511E00080000000081
:10002000000000000000000000000000531E000857
:10003000551E000800000000571E0008591E000849
:10004000751F0008791F00087D1F0008811F000828
:10005000851F0008891F00088D1F0008911F0008D8
:10006000951F0008991F00089D1F0008A11F000888
:10007000A51F0008A91F0008AD1F0008B11F000838
:10008000B51F0008B91F0008BD1F0008C11F0008E8
:10009000C51F0008C91F0008CD1F0008D11F000898
:1000A000D51F0008D91F0008DD1F0008E11F000848
:1000B000E51F0008E91F0008ED1F0008F11F0008F8
:1000C000F51F0008F91F0008FD1F000801200008A7
:1000D000052000085D1E0008092000080D2000080A
:1000E0001120000815200008192000081D20000814
:1000F0002120000825200008292000082D200008C4
:100100003120000835200008392000083D20000873
:100110004120000845200008492000084D20000823
:100120005120000855200008631E000859200008CF
:100130005D20000861200008652000086920000893
:100140006D20000871200008752000087920000843
:100150007D20000881200008691E00088520000815
:10016000892000088D2000089120000895200008B3
:10017000992000089D200008A12000080000000030
:10018000A5200008A920000838B5040001D10120ED
:1001900032BD00F01BF808B900F01CF800F01FF8A1
:1001A00000F027F8FFE7416100F001F832BD206858
:1001B000C16841F40051C16000206860202169706D
:1001C0002020A870002161630020704704F14005E1
:1001D0006878704700212970204600F0ABBA2420CF
:1001E00068702068C16821F40051C160204600F0A9
:1001F0002BBA2068016921F49041016120684169AE
:1002000021F02A017047216801F1140252E8001F11
:10021000206800F1140321F0400143E80010002899
:100220007047F8B5044625682A6828460146C6681E
:100230004B6912F00F0F02F0200106F0200007D1E9
:10024000002918BF00285DD02046BDE8F24093E1A8
:10025000DF0702D416F4907F54D0D50705D5F605F4
:1002600003D5656C45F001056564550705D5DE07C6
:1002700003D5656C45F002056564950705D5DE0775
:1002800003D5656C45F004056564120706D508B909
:10029000DA0703D5636C43F008036364626C002AD9
:1002A0002FD000291EBF0028204600F065F92068E5
:1002B0004069616C0A0701D440061DD5204600F054
:1002C00033F920684169480611D5FFF79CFFFCD13E
:1002D000E06B60B10FF295210165E06B00F057FB18
:1002E00000280ED0E06B016DBDE8F44008472046C1
:1002F000BDE8F24000F056BC204600F053FC002060
:100300006064F1BD206B012804F1410340F09A8044
:10031000D00600D5F10640F19580002200922968B0
:10032000009122685068009000992068A18D426970
:1003300050064BD5E26B1068406880B200283BD075
:10034000884239DAE085D069B0F5807F2DD0216808
:1003500001F10C0050E8001F226802F10C0521F4A5
:10036000807145E800100028F1D100F0AAF8490892
:1003700000F11405490045E800100028F5D100F00F
:10038000A0F800F1140521F0400145E80010002814
:10039000F5D1202058700021216300F098F800F07A
:1003A000B5F8FAD1E06B00F0B6FA02206063A18DD7
:1003B000E08D091A89B207E0884204BFD069B0F520
:1003C000807F7DD102226263204637E0E28DE08D9E
:1003D000891A00281CBF88B2002871D022461068F4
:1003E00000F10C0454E8004F00F10C0624F4907462
:1003F00046E800400028F2D1106800F1140454E8E7
:10040000004F640800F11406640046E8004000282C
:10041000F2D12020587000231363106800F10C0300
:1004200053E8003F00F10C0523F0100345E80030CD
:100430000028F2D10220506389B21046BDE8F44092
:1004400000F0B1BB10062BD5310629D5187821282C
:1004500036D1A068B0F5805F04BF2069002809D1BB
:10046000206A01882A46C1F308015160206A811C74
:10047000216205E0206A411C2162226800785060F8
:10048000E08C401EE08480B2D0B92068C16821F0C1
:100490008001C1602068C16841F04001C160F1BDC8
:1004A00050060DD571060BD52846C16821F04001D4
:1004B000C160204620211970BDE8F24000F074BBF5
:1004C000F1BD206800F1140151E8001F7047206859
:1004D00000F10C0151E8001F00F10C0370470268A5
:1004E00002F10C0151E8002F036803F10C0470477E
:1004F000016801F1140252E8002F520801F11404BE
:10050000520044E800210029F2D1704721F0100187
:1005100043E8001000287047016801F10C0252E81E
:10052000002F01F10C04704710B5FFF7F5FF22F41E
:10053000907200F015F8F8D1FFF7DAFF016B01298E
:1005400006D1FFF7CCFF22F0100200F009F8F8D135
:10055000202180F842100022026310BD22F4807234
:1005600044E800210029704700000000806B002152
:10057000C18500F017BB00001CB590F8421022297D
:1005800052D18168826AB1F5805F0AD1016969B987
:1005900003685968C1F308011180826A911C816265
:1005A0000FE0002904BF0169002902D103685968DE
:1005B00003E00168496801F07F011170816A4A1CFB
:1005C0008262C18D491EC18589B259BB0168CA6862
:1005D00022F02002CA600168CA6822F48072CA60F0
:1005E00001684A69520852004A61202180F842108D
:1005F00000224263016B012912D1026300F016F858
:1006000002681168CB0607D5002400941268009296
:10061000036859680091009A818D00F0C4FA01E0E6
:1006200000F0C3FA002016BD022016BD016801F1DA
:100630000C0252E8002F01F10C0422F0100244E8F1
:1006400000210029F2D1704770B504462268116973
:10065000E06821F4405101431161D3682748A16843
:10066000034020690B4361690343E0690B43034383
:10067000D3605169A06921F440710143516120495F
:100680008A421CBF1F48824202D100F01DFB01E0DC
:1006900000F012FB62682568E4691921B4F5004F87
:1006A000A1FB00016FF0630612D1D30F520000F0DE
:1006B00023FB00F029F8F60032366420B6FBF0F098
:1006C000420002F4F87202EB011200F0070010E0A1
:1006D000930F920000F010FB00F016F8360132364E
:1006E0006420B6FBF0F000F0F00202EB011200F023
:1006F0000F008018A86070BD00000000F369FFFFC4
:1007000000100140001401406421B0FBF1F106FB30
:10071000010670473E483F4901604FF4964200236E
:100720000C2142608360C360036141618361C361E6
:10073000FFF72ABD2DE9F04186B0044614220021BE
:1007400001A800F05CFB2168324881425DD10022A3
:100750003148324D324E00924FF00067416941F00E
:10076000100141614FF48068416901F0100100916E
:10077000009900924FF4C061036843F001030360E5
:100780000222006800F001000090009825480191C5
:10079000029200210391032207210591049201A9ED
:1007A00000F076FB0020A860E8606861A861E8615D
:1007B000286268622E606F60C5F81080284600F0DD
:1007C00033F806F1780005F184064021E5632866D8
:1007D000A9660020E8666867A867E867C5F8800032
:1007E0003060AC636F66C5F8708005F1600000F0A2
:1007F0001BF805F16000A063746100220021252030
:1008000000F06EFC252000F089FC06B0BDE8F08108
:10081000F40400200010014030380240340400206D
:10082000406402400000024070B5044600F0A0FCA5
:1008300006460CB9012070BD04F134050220687031
:100840000021297020680268520852000260226864
:100850001068C1070AD500F08BFC801B0628F6D370
:100860002020286203216970032070BD1368DFF81F
:10087000CC0261680340A0680B43E1680343206930
:100880000B4361690343A0690B43E1690343206A99
:100890000B43616A0343042903D1E16A206B0B43D4
:1008A0000343136023685A69606AD208042840EA47
:1008B000C2020AD1A66AE16A324331B1A06988B99D
:1008C000002E18BF022E1FD016D35A61204600F00A
:1008D00051F9A96A3F228A408260002028620121E2
:1008E000697070BDB0F5005F0AD1032EEDD8DFE866
:1008F00006F00D0B0D03E8E7B1F1C07FE5D105E08F
:10090000022E03D9F61EE0D1C801DED540212962AE
:100910000120687070BDF8B5044604F134056E6AB4
:1009200000F026FC07466878022805D0802129625D
:10093000002028700120F2BD2068016821F0160116
:10094000016000F004F9E868002804BF6869002825
:1009500001D000F008F900F000F920680168CA072A
:100960000CD500F005FCC01B0628F6D32020286219
:1009700003216970002028700320F2BDA86A3F217E
:100980008140B1600020012169702870F2BD90F8AB
:100990003510022903D080224265012070470521CD
:1009A00080F835100068026852085200026000208A
:1009B00070472DE9FC41044604F1340600206049EB
:1009C00000904FF41650776A0A683D68B2FBF0F861
:1009D000B06A082100F0B7F80ED02068026853070B
:1009E0000AD5026822F004020260B06A8140B96050
:1009F000316A41F001013162B06A25FA00F1CA079B
:100A00000BD521684A69110607D5012202FA00F0C8
:100A1000B860306A40F002003062042100F092F8C1
:100A200008D021680A68930704D5B860306A40F09E
:100A300004003062102100F085F81BD021680A689C
:100A4000130717D5B860206801684A0307D5006806
:100A500001030BD5716969B1204688470AE0016836
:100A6000CA0503D4016821F008010160F16809B1E9
:100A700020468847B06A202100F065F83FD0216801
:100A80000A68D3063BD5B8602068717805291CD167
:100A9000026822F01602026000F059F8F06800289F
:100AA00004BF7069002801D000F05DF83F22B06AF1
:100AB0008240BA60012171700020F1693070002914
:100AC00039D02046BDE8FC41084701684A0307D5F4
:100AD000006801030FD4316989B1204688470EE0D0
:100AE0000168CA0507D4016821F0100101600120E6
:100AF000707000213170B16809B120468847306AB2
:100B0000C8B1306AC10710D50520707000F025F813
:100B10000098401C8045009003D320680168CA07F4
:100B2000F6D40120707000213170B16919B12046EE
:100B3000BDE8FC410847BDE8F38100003F8010F0AC
:100B40002C020020B06A01FA00F0054270472068CC
:100B5000416921F0800141617047206801684908BE
:100B60004900016070472068016821F008010160B8
:100B70007047000030B501461823086807A400F04C
:100B8000FF02103AB2FBF3F2800AA55CCD65800249
:100B9000042A28BF001D886530BD0000000610161D
:100BA0000006101670477047704770472DE9F041F6
:100BB00004000F4654D0494E306800F00700B84298
:100BC00002D200F073F84BD12068454D810712D551
:100BD000400703D5A96841F4E051A96020780107D6
:100BE00003D5A86840F46040A860A968A06821F017
:100BF000F0010143A9602178C80729D56068012860
:100C000002D129688A0305E0022818BF032803D10E
:100C100029688A0103D423E029688A0720D5A968B6
:100C2000890840EA8100A86000F0A2FA8046A8681E
:100C3000616800F00C00B0EB810F09D000F098FA69
:100C4000A0EB080041F289318842F0D303202BE069
:100C5000306800F00700874204D200F027F801D086
:100C6000012021E02078410705D5AA68E06822F438
:100C7000E0520243AA602178080706D5A9682069D6
:100C800021F4604141EAC001A96000F077FAAA6846
:100C90001449154BC2F30312895CC840186013480D
:100CA000006800F09BFA0020BDE8F08137703168E1
:100CB00001F00701B94270470B480D4A00681368FC
:100CC0000C49C3F3822206E00748094A006813680A
:100CD0000849C3F34232895CC8407047003C024077
:100CE00000380240001E00082C02002008020020EC
:100CF000083802406C1F0008D3BBD9B1B2F5803F61
:100D00005BD2022A1ED98C46B1FBF2F102FB11C361
:100D10001B0443EA1043B3FBF2FC02FB1C3380B21A
:100D200040EA0343B3FBF2F002FB103240EA0C400E
:100D300000237047022A05D98446B0FBF2F002FB7B
:100D400010C270474AB105D100F0010249085FEABC
:100D50003000704700220023704700F05FBA0B009C
:100D60000200002100207047F7D3002200237047C3
:100D7000904271EB030CF2D370B5B1FA81F4B3FA7F
:100D800083F52C1BA340C4F1200532FA05F633434A
:100D9000A2405FF00046E64002E05B085FEA3202F4
:100DA000841A71EB030524BF204629467641F4D30B
:100DB00002000B003000002170BD70B5B1FA81F463
:100DC000B2FA82F5C4F120046419B4F12006DAD332
:100DD000B2405FF00044F440002502E052085FEAB0
:100DE0003303C61A71EB020E24BF304671466441CC
:100DF0006D41F3D302000B002000290070BD10B537
:100E0000044610460A460146204600F009FA2046EC
:100E100010BDF0B40246106895681318506803EBD3
:100E20005004C00748BF4D44A3422DD013F8016BB6
:100E300016F0030004BF13F8010BC01C31090F2981
:100E400007D113F8011B0F3103E013F8017B05F8FC
:100E5000017B401EF9D10029E6D013F8010BC6F33F
:100E60008106032E08BF13F8016B00EB06204042F9
:100E700028440026B71E8F421EBF10F8017B05F8DC
:100E8000017B761CF6D1CFE7F0BC02F10C00704775
:100E90002DE9F84F0D46002679497A4A0F2304467A
:100EA00001202F68B04000EA0708804540F0D58057
:100EB0004FEA460C032707FA0CF76FEA070E6F6834
:100EC00007F00309B9F1010F1CBF07F00307022F58
:100ED00012D1A768D5F80C900EEA070709FA0CF9A9
:100EE00049EA0707A760676827EA00006F68C7F349
:100EF0000017B74038436060B0002F7907F0030750
:100F0000032F21D0E768D5F808900EEA070709FA01
:100F10000CF949EA0707E7602F7907F00307022F6A
:100F200012D1F70804EB870700F01C09D7F820A0BE
:100F300003FA09FB2AEA0B0AD5F810B00BFA09F9F3
:100F400049EA0A09C7F8209027680EEA070E2F79A8
:100F500007F0030707FA0CF747EA0E0CC4F800C0C5
:100F60006F6817F4403F78D04FF0000ECDF800E0E6
:100F70004FEA960C176847F48047176000F00C00A2
:100F8000D2F800E0404F0EF4804ECDF800E0DDF8DE
:100F900000E057F82C7003FA00FE27EA0E0E3B4FD4
:100FA000BC4208BF002722D0394FBC4208BF0127EE
:100FB0001DD0384FBC4208BF022718D0364FBC4264
:100FC00008BF032713D0354FBC4208BF04270ED0FB
:100FD000334FBC4208BF052709D0324FBC4208BF7F
:100FE000062704D0304FBC420CBF0727082707FA5A
:100FF00000F040EA0E00DFF890E04EF82C006FEAB7
:101000000800D1F808C06F6800EA0C0CFF0248BF66
:1010100048EA0C0CC1F808C0D1F80CC06F6800EAAF
:101020000C0CBF0248BF48EA0C0CC1F80CC0D1F848
:1010300004C06F6800EA0C0CBF0348BF48EA0C0C00
:10104000C1F804C0D1F800C000EA0C0C6868C00305
:1010500048BF48EA0C0CC1F800C0761C0F2E7FF682
:101060001FAFBDE8F18F02B9090481617047426981
:1010700001EA0203914341EA0341816170470000A4
:10108000003C014044380240083801400000024062
:101090000004024000080240000C02400010024020
:1010A0000014024000180240001C02400901020026
:1010B00002D4284881547047274B02F00F021A448B
:1010C00002F8041C7047254B19684FF6FF02000216
:1010D000114000F4E060084321490843186070475C
:1010E00070B51E4B1C68C4F302230124C3F107052D
:1010F000052D2EBF0F2504FA05F56D1E1E1D072EAA
:1011000034BF0023DB1E2940994004FA03F3BDE8F5
:1011100070405B1E1A401143C8E70000010007D46D
:10112000012200F01F010F4B8A40400943F82020A4
:101130007047401EB0F1807F01D3012070470A49FB
:101140000A4A48600023F02010708B600720086076
:101150000020704700E400E018ED00E00CED00E036
:101160000000FA0500E100E010E000E023ED00E0FF
:1011700001484068704700BF0002002030B5144CA1
:10118000606800F00C00042802D0082802D01DE09E
:10119000104830BD226820680023410202F03F025F
:1011A00004D525680B49C5F3881003E020680A4977
:1011B000C0F38810A1FB0001FFF79EFD2168C1F379
:1011C0000141491C4900B0FBF1F030BD024830BD7F
:1011D0000438024040787D010024F40038B50D4DFC
:1011E0000D4B2A7804464FF47A711868B1FBF2F27D
:1011F000B0FBF2F0FFF79DFF50B9102C08D200228F
:1012000021464FF0FF30FFF76BFFAC60002032BD8E
:10121000012032BD000200202C0200207047000097
:1012200062F30F2262F31F42401810F0030308D04C
:10123000C91A1FD3DB0748BF00F8012D28BF20F8CB
:10124000022D130030B414461546103928BF20E98A
:101250003C00FAD8490728BF20E90C0048BF40F8F5
:10126000042D890028BF20F8022D48BF00F8012D69
:1012700030BC7047C91818BF00F8012DCB0728BF34
:1012800000F8012D704700002DE9F843040016D046
:101290002078DFF80463C10713D5B06800F00C00B4
:1012A000042807D0B06800F00C0008283DD1706811
:1012B00041023AD53068810303D56068002800F008
:1012C00065812078B54F810719D5B06810F00C0FF3
:1012D00007D0B06800F00C0008285BD170684102AC
:1012E00058D43068810703D5E068012840F04E816A
:1012F0003168206921F0F80141EAC00131602178AC
:10130000080779D56069A649002868D001220A60DB
:10131000FFF72EFF0546706F81076DD4FFF728FF9A
:10132000401B0228F7D9032033E16068B0F5803F05
:1013300004D1306840F48030306011E0B0F5A02F67
:10134000306806D140F480203060316841F480314B
:1013500005E020F480303060316821F48021316074
:10136000606858B1FFF704FF054630688103A8D4D0
:10137000FFF7FEFE401B6528F7D3D4E7FFF7F8FE22
:101380000546306881039CD5FFF7F2FE401B6528B7
:10139000F7D3C8E7E068A8B101213960FFF7E8FE9C
:1013A00005463068810705D4FFF7E2FE401B02289E
:1013B000F7D9B8E73068216920F0F80040EAC100A9
:1013C00030609CE73860FFF7D3FE05463168880738
:1013D00095D5FFF7CDFE401B0228F7D9A3E708609B
:1013E000FFF7C6FE0546706F810705D5FFF7C0FE03
:1013F000401B0228F7D996E72078410760D5306C6A
:101400000025C1000BD4002000900125316C41F073
:1014100080513164306C00F0805000900098DFF80B
:101420008481D8F80000C10513D4D8F8000040F436
:101430008070C8F80000FFF79BFE8146D8F80000D6
:10144000C10506D4FFF794FEA0EB09000228F5D9E8
:1014500069E7A068012805D00528306F06D140F063
:1014600004003067306F40F0010005E040084000A4
:101470003067306F20F00400306741F28938A0688F
:1014800060B1FFF775FE8146306F810713D4FFF717
:101490006FFEA0EB09004045F6D344E7FFF768FE76
:1014A0008146306F810706D5FFF762FEA0EB090089
:1014B0004045F6D337E71DB1306C20F080503064E2
:1014C000A069002864D0B16801F00C0108293AD065
:1014D00002282AD100203866FFF74AFE0546306808
:1014E000810105D5FFF744FE401B0228F7D91AE712
:1014F000E069216A626A0843A16A490840EA8210E9
:10150000491E40EA0140E16A40EA01607060012042
:101510003866FFF72DFE04463068810138D4FFF7A6
:1015200027FE001B0228F7D9FDE600203866FFF7EA
:101530001FFE0446306881012AD5FFF719FE001B03
:101540000228F7D9EFE6012820D07068E26900F49C
:101550008001914202BF00F03F01226A914201BF27
:1015600047F6C0710140626AB1EB821F0ED1A26AD8
:1015700000F4403101F580315208B1EB024F02BF57
:1015800000F07060E16AB0EB016F01D0012000E073
:101590000020BDE8F28300BF00380240000047424F
:1015A000800E4742007000402DE9F843704F064618
:1015B000387E894614461D46012808BF022028D0DF
:1015C000012038764CF25038404600F03CF80100DB
:1015D0001DD1484622462B461EB9D1B200F08DF8E7
:1015E0000DE0012E03D191B200F071F807E0022E58
:1015F00003D1114600F062F801E000F04BF84046DC
:1016000000F021F85B490A68520852000A60002184
:101610003976BDE8F2835949CA680020002A00D40F
:10162000704710B5564A574C0A600C60C9680029CB
:1016300048BF012010BD4F48016841F00041FFE75D
:1016400001600020704770B5044649494A4E0020A9
:10165000C861FFF78DFD05463068C1030AD514F156
:10166000010FF9D024B1FFF783FD401B8442F3D270
:10167000032070BD3068C10744BF0120306034686A
:1016800014F0F20F18BF00F042F814F0F20018BF87
:10169000012070BD30B537490C6824F440740C60EB
:1016A0000D6845F440750D600C6844F001040C6051
:1016B00040F8042BBFF36F8F036030BD10B500F00E
:1016C00015F844F4007400F00BF8016010BD10B57B
:1016D00000F00CF844F4807400F002F8018010BDB2
:1016E0001460136843F0010313607047214A1368C4
:1016F00023F4407313601468704730B5FFF7F6FFAA
:101700001460156845F001051560017030BD1A4977
:1017100017480A68D30605D5C26942F01002C261B3
:1017200010230B600A68930605D5C26942F00802CF
:10173000C26120230B600A68530605D5C26942F0D6
:101740000402C26140230B600A68130605D5C26912
:1017500042F00202C26180230B600A68930705D53C
:10176000C26942F02002C261022008607047000096
:101770000C020020103C02400C3C0240043C0240A1
:1017800023016745AB89EFCD72B6BFF34F8F574941
:1017900057480A6802F4E06202430A60BFF34F8FC1
:1017A00000BFFDE71CB5534C5348216889B200F0D7
:1017B000B1F80090A0889DF80110C2B2914204BF18
:1017C0009DF80030B3EB102F01D1012016BD002091
:1017D00016BD38B54849494A086849680240B2F11F
:1017E000005F00D031BD72B6454A0023136000246B
:1017F00054600025956000224FF0FF33414C424D6C
:1018000044F8223045F82230521C082AF8D33F4BC6
:10181000394A1A6080F308888847FEE710B53C4CC7
:1018200002E0FFF7A5FCA060207878B1607800287E
:10183000FCD00021617004F50071626804F10C00B5
:1018400000F0C8F80028ECD0022010BDFFF790FC93
:10185000A168401A40F2D171884224BF0022227050
:1018600088428041C00F10BD38B500F0E1F800F0AB
:10187000F9F800F057F9FEF74DFF00F046F9FFF7D1
:1018800077FC0025224C03E000F041F9FFF7A1FFAF
:10189000E17811B1012917D0FAE7207868B1A07872
:1018A000012806D1E0700621022000F04FF8002543
:1018B000EEE7032000F012F9EAE7FFF773FF0028D4
:1018C000E2D101202070E3E7FFF7A8FF012808BF5D
:1018D0000025DDD010B9FFF757FFD9E76D1CE8B23E
:1018E0000328D5DD0421E170D2E700000CED00E013
:1018F0000400FA0504800008108000080000FE2F94
:1019000010E000E080E100E080E200E008ED00E0AF
:101910003002002038B5FF22FF230B4C08E010F8FE
:10192000015B55401A46635D5A40631993F80031D4
:101930000D46691EADB2002DF1D18DF801308DF844
:101940000020009832BD00BF0000002038B586B0EE
:101950000546002000900C46FFF75DFE0021019136
:101960000222059203950494694601A800F0FCF850
:101970000446FFF760FE204607B030BD2DE9F04178
:1019800004462948002600190D469046B0F5782FE8
:1019900028BF01201CD2FFF73EFE002700E03F1DBC
:1019A000474512D2E819027841788378C07842EA34
:1019B000012242EA034242EA00620023391902206E
:1019C000FFF7F2FD00280646E9D0FFF734FE304667
:1019D000BDE8F081F8B50D460446286813498842F1
:1019E000164603D33118B1F1016F01D30420F2BDC3
:1019F00010F0030F08BF16F0030F01D00320F2BD53
:101A00002146FFF7BBFF08B10220F2BD2F68324626
:101A10002146384600F056F908B9F6192E6000B193
:101A20000120C0B2F2BD00000080FFF70080000876
:101A300080B50B48016841F400710160026842F40E
:101A400080620260016841F4807101600320FFF749
:101A50003AFB0F20FFF7C2FB00F044F9002002BD63
:101A6000003C024010B586B01422002101A8FFF707
:101A7000C6F9002129482A4C0091026842F004026C
:101A800002600022016801F00401009100990092B7
:101A9000036843F080030360016801F08001009156
:101AA000009900924FF40051036843F00103036072
:101AB000006800F00100009000982046FFF7D3FA7C
:101AC0004FF40051019101220021039104910292EF
:101AD00001A92046FFF7DCF906B010BD38B5044671
:101AE000002509E04FF400510D48FFF7C0FA4FF40C
:101AF000967000F013F96D1CE8B2A042F2D3BDE875
:101B000032404FF47A7000F009B9002200E001225F
:101B10004FF400510248FFF7A6BA000030380240E7
:101B20000008024080B50020009000220D480168A6
:101B300041F4800101600021006800F48000009001
:101B400000983A20FFF7CCFA3A20FFF7E7FA002294
:101B500000214620FFF7C4FABDE802404620FFF707
:101B6000DDBA00BF303802402DE9F047524E04463E
:101B7000307E8946012808BF02203CD00120307603
:101B80004CF2503A5046FFF75EFD804680BB4FF066
:101B9000FF30C9F800002168484D01290DD12069A6
:101BA0006168C0B200F029F85046FFF74CFD80464E
:101BB000286820F00400286018E0A76800E07F1C77
:101BC000E068A1680818874210D22169C9B2384676
:101BD00000F023F85046FFF736FD5FEA000828685A
:101BE00020F07A002860EAD0C9F8007000F03BF8D5
:101BF000002030764046BDE8F08730490A6822F47C
:101C000040720A600B6843F004030B600A6842EA02
:101C1000002242F480320A60704710B500220B00A7
:101C20000AD0012908BF4FF4807205D002290CBFE9
:101C30004FF400724FF4407220490B6823F4407354
:101C40000B600C6822430A600A6822F078020A607E
:101C50000B6843EAC00343F002030B60086840F4DA
:101C60008030086010BD164801688A050FD50168EC
:101C700021F400710160026842F4006202600168B0
:101C800021F400610160026842F4007202600168A0
:101C90004A050FD5016821F480610160026842F4B1
:101CA00080520260016821F480510160026842F4B0
:101CB00080620260704700000C020020103C02406D
:101CC000003C024003000020521E22BF13F8010B0B
:101CD00011F801CBB0EB0C00F6D0521C08BF104637
:101CE0007047000081B00020009000220A4841683F
:101CF00041F480414160416801F4804100910099C4
:101D00000092036843F080530360006800F0805045
:101D10000090009801B070474038024038B5044642
:101D2000FFF726FA14F1010F054602D004480178A6
:101D30006418FFF71DFA401BA042FAD331BD00BF63
:101D40000002002080B52B4892B0016841F4700178
:101D500001603022002106A8FFF751F8142200216B
:101D600001A8FFF74CF8002000904FF48033224880
:101D7000016841F0805101600021006800F080504E
:101D8000009000981D480091026842F48042026071
:101D90000122006800F48040009006A80099069295
:101DA00002214FF480020C910D9219214FF4A87278
:101DB0000E910F9202210422079310911192FFF7C6
:101DC00063FA08B172B6FEE7022102910022039283
:101DD0000F204FF4A051019004914FF480520592CE
:101DE000052101A8FEF7E2FE08B172B6FEE713B0C6
:101DF00000BD000088ED00E0403802400070004067
:101E000000000000000000000102030406070809AA
:101E100030B4002512E050F8042BD30744BF4A44E5
:101E2000521E091F042942F8045BFAD213468C079C
:101E300044BF15809B1CC90748BF1D7050F8041B88
:101E40000029E8D130BC7047FEE7FEE7FEE7FEE779
:101E5000FEE770477047704700F010B80448FEF77F
:101E6000E0B90448FEF7A5BD0348FEF7A2BD000097
:101E7000F404002034040020940400200248416847
:101E800002788A18426070470002002010B50749A6
:101E900079441831064C7C44163404E00A68081D65
:101EA000114488470146A142F8D110BD2C00000022
:101EB000480000004EF68851CEF20001086840F458
:101EC00070000860BFF34F8FBFF36F8F4FF001704A
:101ED000E1EE100A7047000039FFFFFF0C0300001D
:101EE00030020020000000002BEFFFFFC0010000C7
:101EF000680200000000002000F00DF8002801D06A
:101F0000FFF7C4FFAFF300800020AFF30080FFF7BE
:101F1000ABFC00F002F80120704700F001B80000AF
:101F20000746384600F002F8FBE7000080B5AFF343
:101F30000080024A11001820ABBEFBE72600020019
:101F40000548014603B4684680F30988AFF3008072
:101F5000FFF7B0FFFFF7D0FFA5EDF5FE0148804782
:101F600001480047451D0008411F0008000000000F
:101F700001020304FFF7FEBFFFF7FEBFFFF7FEBF3E
:101F8000FFF7FEBFFFF7FEBFFFF7FEBFFFF7FEBF85
:101F9000FFF7FEBFFFF7FEBFFFF7FEBFFFF7FEBF75
:101FA000FFF7FEBFFFF7FEBFFFF7FEBFFFF7FEBF65
:101FB000FFF7FEBFFFF7FEBFFFF7FEBFFFF7FEBF55
:101FC000FFF7FEBFFFF7FEBFFFF7FEBFFFF7FEBF45
:101FD000FFF7FEBFFFF7FEBFFFF7FEBFFFF7FEBF35
:101FE000FFF7FEBFFFF7FEBFFFF7FEBFFFF7FEBF25
:101FF000FFF7FEBFFFF7FEBFFFF7FEBFFFF7FEBF15
:10200000FFF7FEBFFFF7FEBFFFF7FEBFFFF7FEBF04
:10201000FFF7FEBFFFF7FEBFFFF7FEBFFFF7FEBFF4
:10202000FFF7FEBFFFF7FEBFFFF7FEBFFFF7FEBFE4
:10203000FFF7FEBFFFF7FEBFFFF7FEBFFFF7FEBFD4
:10204000FFF7FEBFFFF7FEBFFFF7FEBFFFF7FEBFC4
:10205000FFF7FEBFFFF7FEBFFFF7FEBFFFF7FEBFB4
:10206000FFF7FEBFFFF7FEBFFFF7FEBFFFF7FEBFA4
:10207000FFF7FEBFFFF7FEBFFFF7FEBFFFF7FEBF94
:10208000FFF7FEBFFFF7FEBFFFF7FEBFFFF7FEBF84
:10209000FFF7FEBFFFF7FEBFFFF7FEBFFFF7FEBF74
:1020A000FFF7FEBFFFF7FEBFFFF7FEBF200600C130
:1020B000814001C0804104610C2108E118A11CF19C
:1020C0000B30F10738F12760F11F70F1206000FE3E
:1020D000C0C101C30302C2C60607C705C5C404CCFC
:1020E0000C0DCD0FCFCE0E0ACACB0BC90908C8D82C
:1020F0001819D91BDBDA1A1EDEDF1FDD1D1CDC14EC
:10210000D4D515D71716D6D21213D311D1D010F0BB
:102110003031F133F3F23236F6F737F53534F43C3B
:10212000FCFD3DFF3F3EFEFA3A3BFB39F9F838280B
:10213000E8E929EB2B2AEAEE2E2FEF2DEDEC2CE42B
:102140002425E527E7E62622E2E323E12120E0A09B
:102150006061A163A3A26266A6A767A56564A46C7B
:10216000ACAD6DAF6F6EAEAA6A6BAB69A9A86878AB
:10217000B8B979BB7B7ABABE7E7FBF7DBDBC7CB46B
:102180007475B577B7B67672B2B373B17170B0507B
:102190009091519353529296565797559594549CBB
:1021A0005C5D9D5F9F9E5E5A9A9B5B99595898888B
:1021B0004849894B8B8A4A4E8E8F4F8D4D4C8C44AB
:1021C000848545874746868242438341818040011A
:1021D000420001F301100001E20114000124F400A7
:0400000508001F418F
:00000001FF
